{
  "contractName": "ECDSAVerification",
  "abi": [
    {
      "inputs": [],
      "name": "getFeePrice",
      "outputs": [
        {
          "internalType": "uint256",
          "name": "",
          "type": "uint256"
        }
      ],
      "stateMutability": "view",
      "type": "function"
    }
  ],
  "bytecode": "0x6080604052655af3107a400060005573e78dc206875373b351eef2d182025bb9a64d67b3600160006101000a81548173ffffffffffffffffffffffffffffffffffffffff021916908373ffffffffffffffffffffffffffffffffffffffff16021790555034801561006f57600080fd5b5060b68061007e6000396000f3fe6080604052348015600f57600080fd5b506004361060285760003560e01c806397a3672f14602d575b600080fd5b60336047565b604051603e9190605d565b60405180910390f35b60008054905090565b6057816076565b82525050565b6000602082019050607060008301846050565b92915050565b600081905091905056fea2646970667358221220f1886c813d63da951c00892adcbf8fd9e16e6c120b4431de822861a4cd5091b464736f6c63430008000033",
  "immutableReferences": {},
  "source": "pragma solidity 0.8.0;\n\n\n  // @title Verify message and signatures.\n\n\nimport \"./OracleData.sol\";\n\ncontract ECDSAVerification is OracleData {\n\n  \n  // Verify the message.\n  // @param h Is the message to verify.\n  // @param [r,s] Are outputs of the ECDSA signature.\n  // @param v Is the recovery id.\n  // @return True if valid, false otherwise.\n\n  function _verify(bytes32 h, uint8 v, bytes32 r, bytes32 s) internal returns (bool) {\n    bytes32 prefixedHash = keccak256(abi.encodePacked(\"\\x19Ethereum Signed Message:\\n32\", h));\n    address addr = ecrecover(prefixedHash, v, r, s);\n    return addr == _getOracleAddress();\n  }\n\n}",
  "sourcePath": "/Users/dani/Documents/Coding/Solidity/BSC/oracle/contracts/system/ECDSAVerification.sol",
  "compiler": {
    "name": "solc",
    "version": "0.8.0+commit.c7dfd78e.Emscripten.clang"
  },
  "schemaVersion": "3.3.4",
  "updatedAt": "2021-04-19T20:22:50.808Z",
  "devdoc": {
    "kind": "dev",
    "methods": {},
    "version": 1
  },
  "userdoc": {
    "kind": "user",
    "methods": {},
    "version": 1
  }
}