{
  "contractName": "OracleData",
  "abi": [
    {
      "inputs": [],
      "name": "getFeePrice",
      "outputs": [
        {
          "internalType": "uint256",
          "name": "",
          "type": "uint256"
        }
      ],
      "stateMutability": "view",
      "type": "function"
    }
  ],
  "bytecode": "0x6080604052655af3107a400060005573e78dc206875373b351eef2d182025bb9a64d67b3600160006101000a81548173ffffffffffffffffffffffffffffffffffffffff021916908373ffffffffffffffffffffffffffffffffffffffff16021790555034801561006f57600080fd5b5060b68061007e6000396000f3fe6080604052348015600f57600080fd5b506004361060285760003560e01c806397a3672f14602d575b600080fd5b60336047565b604051603e9190605d565b60405180910390f35b60008054905090565b6057816076565b82525050565b6000602082019050607060008301846050565b92915050565b600081905091905056fea2646970667358221220a7210859d2a1ab14ca247c7fd7d1b20d6d370be96e12a4739ed8288d2e35551f64736f6c63430008000033",
  "immutableReferences": {},
  "source": "pragma solidity 0.8.0;\n\n\n  // @title Holds the oracle information.\n\ncontract OracleData {\n\n  // Fee required to process the oracle request.\n  uint private FEE = 0.0001 ether;\n\n  \n  // The address that signs the transaction.\n  address private ORACLE = 0xE78dC206875373B351EEF2D182025bb9a64d67B3;\n\n  \n  // Set the oracle fee.\n  // @param _fee The new fee.\n  function _setOracleFee(uint _fee) internal {\n    FEE = _fee;\n  }\n\n \n  // Set the oracle address.\n  // @param _oracle The new oracle address.\n  function _setOracleAddress(address _oracle) internal {\n    ORACLE = _oracle;\n  }\n\n\n  // Get the oracle address.\n  // @return The oracle address.\n  function _getOracleAddress() internal view returns (address) {\n    return ORACLE;\n  }\n\n  \n  // Get the fee price.\n  // @return The fee price.\n  function getFeePrice() public view returns (uint) {\n    return FEE;\n  }\n}",
  "sourcePath": "/Users/dani/Documents/Coding/Solidity/BSC/Oracle/contracts/system/OracleData.sol",
  "compiler": {
    "name": "solc",
    "version": "0.8.0+commit.c7dfd78e.Emscripten.clang"
  },
  "schemaVersion": "3.3.4",
  "updatedAt": "2021-04-20T08:35:22.700Z",
  "devdoc": {
    "kind": "dev",
    "methods": {},
    "version": 1
  },
  "userdoc": {
    "kind": "user",
    "methods": {},
    "version": 1
  }
}