{
  "contractName": "Oracle",
  "abi": [
    {
      "anonymous": false,
      "inputs": [
        {
          "indexed": true,
          "internalType": "address",
          "name": "previousOwner",
          "type": "address"
        },
        {
          "indexed": true,
          "internalType": "address",
          "name": "newOwner",
          "type": "address"
        }
      ],
      "name": "OwnershipTransferred",
      "type": "event"
    },
    {
      "anonymous": false,
      "inputs": [
        {
          "indexed": false,
          "internalType": "bytes32",
          "name": "_requestId",
          "type": "bytes32"
        },
        {
          "indexed": false,
          "internalType": "bool",
          "name": "_result",
          "type": "bool"
        }
      ],
      "name": "httpGetBooleanFulFilled",
      "type": "event"
    },
    {
      "anonymous": false,
      "inputs": [
        {
          "indexed": false,
          "internalType": "address",
          "name": "_requester",
          "type": "address"
        },
        {
          "indexed": false,
          "internalType": "bytes32",
          "name": "_requestId",
          "type": "bytes32"
        },
        {
          "indexed": false,
          "internalType": "string",
          "name": "_baseUrl",
          "type": "string"
        },
        {
          "indexed": false,
          "internalType": "string",
          "name": "_path",
          "type": "string"
        },
        {
          "indexed": false,
          "internalType": "string[]",
          "name": "_jsonData",
          "type": "string[]"
        }
      ],
      "name": "httpGetBooleanRequested",
      "type": "event"
    },
    {
      "anonymous": false,
      "inputs": [
        {
          "indexed": false,
          "internalType": "bytes32",
          "name": "_requestId",
          "type": "bytes32"
        },
        {
          "indexed": false,
          "internalType": "uint256",
          "name": "_result",
          "type": "uint256"
        }
      ],
      "name": "httpGetNumberFulFilled",
      "type": "event"
    },
    {
      "anonymous": false,
      "inputs": [
        {
          "indexed": false,
          "internalType": "address",
          "name": "_requester",
          "type": "address"
        },
        {
          "indexed": false,
          "internalType": "bytes32",
          "name": "_requestId",
          "type": "bytes32"
        },
        {
          "indexed": false,
          "internalType": "string",
          "name": "_baseUrl",
          "type": "string"
        },
        {
          "indexed": false,
          "internalType": "string",
          "name": "_path",
          "type": "string"
        },
        {
          "indexed": false,
          "internalType": "string[]",
          "name": "_jsonData",
          "type": "string[]"
        }
      ],
      "name": "httpGetNumberRequested",
      "type": "event"
    },
    {
      "anonymous": false,
      "inputs": [
        {
          "indexed": false,
          "internalType": "bytes32",
          "name": "_requestId",
          "type": "bytes32"
        },
        {
          "indexed": false,
          "internalType": "uint256",
          "name": "_result",
          "type": "uint256"
        }
      ],
      "name": "randomNumberRequestFulFilled",
      "type": "event"
    },
    {
      "anonymous": false,
      "inputs": [
        {
          "indexed": false,
          "internalType": "address",
          "name": "_requester",
          "type": "address"
        },
        {
          "indexed": false,
          "internalType": "bytes32",
          "name": "_requestId",
          "type": "bytes32"
        }
      ],
      "name": "randomNumberRequested",
      "type": "event"
    },
    {
      "inputs": [],
      "name": "getFeePrice",
      "outputs": [
        {
          "internalType": "uint256",
          "name": "",
          "type": "uint256"
        }
      ],
      "stateMutability": "view",
      "type": "function",
      "constant": true
    },
    {
      "inputs": [],
      "name": "owner",
      "outputs": [
        {
          "internalType": "address",
          "name": "",
          "type": "address"
        }
      ],
      "stateMutability": "view",
      "type": "function",
      "constant": true
    },
    {
      "inputs": [],
      "name": "renounceOwnership",
      "outputs": [],
      "stateMutability": "nonpayable",
      "type": "function"
    },
    {
      "inputs": [
        {
          "internalType": "address",
          "name": "",
          "type": "address"
        }
      ],
      "name": "requestIdList",
      "outputs": [
        {
          "internalType": "bytes32",
          "name": "",
          "type": "bytes32"
        }
      ],
      "stateMutability": "view",
      "type": "function",
      "constant": true
    },
    {
      "inputs": [
        {
          "internalType": "address",
          "name": "newOwner",
          "type": "address"
        }
      ],
      "name": "transferOwnership",
      "outputs": [],
      "stateMutability": "nonpayable",
      "type": "function"
    },
    {
      "inputs": [],
      "name": "requestRandomNumber",
      "outputs": [
        {
          "internalType": "bytes32",
          "name": "",
          "type": "bytes32"
        }
      ],
      "stateMutability": "nonpayable",
      "type": "function"
    },
    {
      "inputs": [
        {
          "internalType": "bytes32",
          "name": "_h",
          "type": "bytes32"
        },
        {
          "internalType": "uint8",
          "name": "_v",
          "type": "uint8"
        },
        {
          "internalType": "bytes32",
          "name": "_r",
          "type": "bytes32"
        },
        {
          "internalType": "bytes32",
          "name": "_s",
          "type": "bytes32"
        },
        {
          "internalType": "address",
          "name": "_requester",
          "type": "address"
        },
        {
          "internalType": "uint256",
          "name": "_result",
          "type": "uint256"
        }
      ],
      "name": "fulfilRandomNumberRequest",
      "outputs": [],
      "stateMutability": "nonpayable",
      "type": "function"
    },
    {
      "inputs": [
        {
          "internalType": "string",
          "name": "_baseUrl",
          "type": "string"
        },
        {
          "internalType": "string",
          "name": "_path",
          "type": "string"
        },
        {
          "internalType": "string[]",
          "name": "_jsonData",
          "type": "string[]"
        }
      ],
      "name": "requestHttpGetNumber",
      "outputs": [
        {
          "internalType": "bytes32",
          "name": "",
          "type": "bytes32"
        }
      ],
      "stateMutability": "nonpayable",
      "type": "function"
    },
    {
      "inputs": [
        {
          "internalType": "bytes32",
          "name": "_h",
          "type": "bytes32"
        },
        {
          "internalType": "uint8",
          "name": "_v",
          "type": "uint8"
        },
        {
          "internalType": "bytes32",
          "name": "_r",
          "type": "bytes32"
        },
        {
          "internalType": "bytes32",
          "name": "_s",
          "type": "bytes32"
        },
        {
          "internalType": "address",
          "name": "_requester",
          "type": "address"
        },
        {
          "internalType": "uint256",
          "name": "_result",
          "type": "uint256"
        }
      ],
      "name": "fulfilHttpGetNumber",
      "outputs": [],
      "stateMutability": "nonpayable",
      "type": "function"
    },
    {
      "inputs": [
        {
          "internalType": "string",
          "name": "_baseUrl",
          "type": "string"
        },
        {
          "internalType": "string",
          "name": "_path",
          "type": "string"
        },
        {
          "internalType": "string[]",
          "name": "_jsonData",
          "type": "string[]"
        }
      ],
      "name": "requestHttpGetBoolean",
      "outputs": [
        {
          "internalType": "bytes32",
          "name": "",
          "type": "bytes32"
        }
      ],
      "stateMutability": "nonpayable",
      "type": "function"
    },
    {
      "inputs": [
        {
          "internalType": "bytes32",
          "name": "_h",
          "type": "bytes32"
        },
        {
          "internalType": "uint8",
          "name": "_v",
          "type": "uint8"
        },
        {
          "internalType": "bytes32",
          "name": "_r",
          "type": "bytes32"
        },
        {
          "internalType": "bytes32",
          "name": "_s",
          "type": "bytes32"
        },
        {
          "internalType": "address",
          "name": "_requester",
          "type": "address"
        },
        {
          "internalType": "bool",
          "name": "_result",
          "type": "bool"
        }
      ],
      "name": "fulfilHttpGetBoolean",
      "outputs": [],
      "stateMutability": "nonpayable",
      "type": "function"
    },
    {
      "inputs": [
        {
          "internalType": "address",
          "name": "_requester",
          "type": "address"
        }
      ],
      "name": "getRequestId",
      "outputs": [
        {
          "internalType": "bytes32",
          "name": "",
          "type": "bytes32"
        }
      ],
      "stateMutability": "view",
      "type": "function",
      "constant": true
    },
    {
      "inputs": [
        {
          "internalType": "uint256",
          "name": "_fee",
          "type": "uint256"
        }
      ],
      "name": "setOracleFee",
      "outputs": [],
      "stateMutability": "nonpayable",
      "type": "function"
    },
    {
      "inputs": [
        {
          "internalType": "address",
          "name": "_oracle",
          "type": "address"
        }
      ],
      "name": "setOracleAddress",
      "outputs": [],
      "stateMutability": "nonpayable",
      "type": "function"
    }
  ],
  "bytecode": "0x6080604052655af3107a400060035573e78dc206875373b351eef2d182025bb9a64d67b3600460006101000a81548173ffffffffffffffffffffffffffffffffffffffff021916908373ffffffffffffffffffffffffffffffffffffffff16021790555034801561006f57600080fd5b50600061008061012360201b60201c565b9050806000806101000a81548173ffffffffffffffffffffffffffffffffffffffff021916908373ffffffffffffffffffffffffffffffffffffffff1602179055508073ffffffffffffffffffffffffffffffffffffffff16600073ffffffffffffffffffffffffffffffffffffffff167f8be0079c531659141344cd1fd0a4f28419497f9722a3daafe3b4186f6b6457e060405160405180910390a35061012b565b600033905090565b611cc78061013a6000396000f3fe608060405234801561001057600080fd5b50600436106100ea5760003560e01c806397a3672f1161008c578063b6d9ef6011610066578063b6d9ef6014610223578063b8405c2a1461023f578063f2fde38b1461026f578063f54658ac1461028b576100ea565b806397a3672f146101b9578063a2283ad9146101d7578063b073877614610207576100ea565b80636a5be34f116100c85780636a5be34f14610157578063715018a6146101735780638678a7b21461017d5780638da5cb5b1461019b576100ea565b80631e612da8146100ef578063287f7dbb1461011f5780634c69c00f1461013b575b600080fd5b610109600480360381019061010491906112c3565b6102bb565b60405161011691906118ad565b60405180910390f35b61013960048036038101906101349190611375565b610304565b005b610155600480360381019061015091906112c3565b6104fa565b005b610171600480360381019061016c9190611375565b6105bc565b005b61017b6107b2565b005b6101856108ec565b60405161019291906118ad565b60405180910390f35b6101a36109b3565b6040516101b09190611801565b60405180910390f35b6101c16109dc565b6040516101ce91906119df565b60405180910390f35b6101f160048036038101906101ec91906113fe565b6109e6565b6040516101fe91906118ad565b60405180910390f35b610221600480360381019061021c91906112ec565b610ab7565b005b61023d60048036038101906102389190611495565b610cad565b005b610259600480360381019061025491906112c3565b610d42565b60405161026691906118ad565b60405180910390f35b610289600480360381019061028491906112c3565b610d5a565b005b6102a560048036038101906102a091906113fe565b610f03565b6040516102b291906118ad565b60405180910390f35b6000600560008373ffffffffffffffffffffffffffffffffffffffff1673ffffffffffffffffffffffffffffffffffffffff168152602001908152602001600020549050919050565b856001600082815260200190815260200160002060009054906101000a900460ff1615610366576040517f08c379a000000000000000000000000000000000000000000000000000000000815260040161035d9061195f565b60405180910390fd5b61036e610fd4565b61037781610fdc565b156103b7576040517f08c379a00000000000000000000000000000000000000000000000000000000081526004016103ae9061199f565b60405180910390fd5b6103c388888888611032565b6103cc57600080fd5b8373ffffffffffffffffffffffffffffffffffffffff16637b3af396600560008773ffffffffffffffffffffffffffffffffffffffff1673ffffffffffffffffffffffffffffffffffffffff16815260200190815260200160002054856040518363ffffffff1660e01b81526004016104469291906118f1565b600060405180830381600087803b15801561046057600080fd5b505af1158015610474573d6000803e3d6000fd5b505050507f02ca0851841d033eba0e91de828cac894f16a9b8ad6835b9cb50df3889981b22600560008673ffffffffffffffffffffffffffffffffffffffff1673ffffffffffffffffffffffffffffffffffffffff16815260200190815260200160002054846040516104e89291906118f1565b60405180910390a15050505050505050565b610502610fd4565b73ffffffffffffffffffffffffffffffffffffffff166105206109b3565b73ffffffffffffffffffffffffffffffffffffffff1614610576576040517f08c379a000000000000000000000000000000000000000000000000000000000815260040161056d906119bf565b60405180910390fd5b600073ffffffffffffffffffffffffffffffffffffffff168173ffffffffffffffffffffffffffffffffffffffff1614156105b057600080fd5b6105b9816110f3565b50565b856001600082815260200190815260200160002060009054906101000a900460ff161561061e576040517f08c379a00000000000000000000000000000000000000000000000000000000081526004016106159061195f565b60405180910390fd5b610626610fd4565b61062f81610fdc565b1561066f576040517f08c379a00000000000000000000000000000000000000000000000000000000081526004016106669061199f565b60405180910390fd5b61067b88888888611032565b61068457600080fd5b8373ffffffffffffffffffffffffffffffffffffffff16637b3af396600560008773ffffffffffffffffffffffffffffffffffffffff1673ffffffffffffffffffffffffffffffffffffffff16815260200190815260200160002054856040518363ffffffff1660e01b81526004016106fe9291906118f1565b600060405180830381600087803b15801561071857600080fd5b505af115801561072c573d6000803e3d6000fd5b505050507fbbbc606de500f5be74f61025f33340ec819a3e0db1aad25ce7a4ceeb2fef6eaa600560008673ffffffffffffffffffffffffffffffffffffffff1673ffffffffffffffffffffffffffffffffffffffff16815260200190815260200160002054846040516107a09291906118f1565b60405180910390a15050505050505050565b6107ba610fd4565b73ffffffffffffffffffffffffffffffffffffffff166107d86109b3565b73ffffffffffffffffffffffffffffffffffffffff161461082e576040517f08c379a0000000000000000000000000000000000000000000000000000000008152600401610825906119bf565b60405180910390fd5b600073ffffffffffffffffffffffffffffffffffffffff1660008054906101000a900473ffffffffffffffffffffffffffffffffffffffff1673ffffffffffffffffffffffffffffffffffffffff167f8be0079c531659141344cd1fd0a4f28419497f9722a3daafe3b4186f6b6457e060405160405180910390a360008060006101000a81548173ffffffffffffffffffffffffffffffffffffffff021916908373ffffffffffffffffffffffffffffffffffffffff160217905550565b6000806108f7610fd4565b426040516020016109099291906117af565b604051602081830303815290604052805190602001209050806005600061092e610fd4565b73ffffffffffffffffffffffffffffffffffffffff1673ffffffffffffffffffffffffffffffffffffffff168152602001908152602001600020819055507f7f9f9cd1101364e1edc9f810b7db7551003f039ac5d428ccba34c00c57d6e057610995610fd4565b826040516109a492919061181c565b60405180910390a18091505090565b60008060009054906101000a900473ffffffffffffffffffffffffffffffffffffffff16905090565b6000600354905090565b6000806109f1610fd4565b42604051602001610a039291906117af565b6040516020818303038152906040528051906020012090508060056000610a28610fd4565b73ffffffffffffffffffffffffffffffffffffffff1673ffffffffffffffffffffffffffffffffffffffff168152602001908152602001600020819055507f11cad535117de92bfa28163b883edffa83568b3a25c52bca44c4e0e653ff1cb1610a8f610fd4565b82878787604051610aa4959493929190611845565b60405180910390a1809150509392505050565b856001600082815260200190815260200160002060009054906101000a900460ff1615610b19576040517f08c379a0000000000000000000000000000000000000000000000000000000008152600401610b109061195f565b60405180910390fd5b610b21610fd4565b610b2a81610fdc565b15610b6a576040517f08c379a0000000000000000000000000000000000000000000000000000000008152600401610b619061199f565b60405180910390fd5b610b7688888888611032565b610b7f57600080fd5b8373ffffffffffffffffffffffffffffffffffffffff1663fb3e1b8a600560008773ffffffffffffffffffffffffffffffffffffffff1673ffffffffffffffffffffffffffffffffffffffff16815260200190815260200160002054856040518363ffffffff1660e01b8152600401610bf99291906118c8565b600060405180830381600087803b158015610c1357600080fd5b505af1158015610c27573d6000803e3d6000fd5b505050507f88ee353672e87ca2797547e5157abf14ea4348dcefac8895716fe6963d31cd4c600560008673ffffffffffffffffffffffffffffffffffffffff1673ffffffffffffffffffffffffffffffffffffffff1681526020019081526020016000205484604051610c9b9291906118c8565b60405180910390a15050505050505050565b610cb5610fd4565b73ffffffffffffffffffffffffffffffffffffffff16610cd36109b3565b73ffffffffffffffffffffffffffffffffffffffff1614610d29576040517f08c379a0000000000000000000000000000000000000000000000000000000008152600401610d20906119bf565b60405180910390fd5b60008111610d3657600080fd5b610d3f81611137565b50565b60056020528060005260406000206000915090505481565b610d62610fd4565b73ffffffffffffffffffffffffffffffffffffffff16610d806109b3565b73ffffffffffffffffffffffffffffffffffffffff1614610dd6576040517f08c379a0000000000000000000000000000000000000000000000000000000008152600401610dcd906119bf565b60405180910390fd5b600073ffffffffffffffffffffffffffffffffffffffff168173ffffffffffffffffffffffffffffffffffffffff161415610e46576040517f08c379a0000000000000000000000000000000000000000000000000000000008152600401610e3d9061197f565b60405180910390fd5b8073ffffffffffffffffffffffffffffffffffffffff1660008054906101000a900473ffffffffffffffffffffffffffffffffffffffff1673ffffffffffffffffffffffffffffffffffffffff167f8be0079c531659141344cd1fd0a4f28419497f9722a3daafe3b4186f6b6457e060405160405180910390a3806000806101000a81548173ffffffffffffffffffffffffffffffffffffffff021916908373ffffffffffffffffffffffffffffffffffffffff16021790555050565b600080610f0e610fd4565b42604051602001610f209291906117af565b6040516020818303038152906040528051906020012090508060056000610f45610fd4565b73ffffffffffffffffffffffffffffffffffffffff1673ffffffffffffffffffffffffffffffffffffffff168152602001908152602001600020819055507f2391c72e35a3083ab46767c2825ad6707e02e441852d499db0811fe0d9ab6a3a610fac610fd4565b82878787604051610fc1959493929190611845565b60405180910390a1809150509392505050565b600033905090565b6000600260008373ffffffffffffffffffffffffffffffffffffffff1673ffffffffffffffffffffffffffffffffffffffff16815260200190815260200160002060009054906101000a900460ff169050919050565b6000808560405160200161104691906117db565b604051602081830303815290604052805190602001209050600060018287878760405160008152602001604052604051611083949392919061191a565b6020604051602081039080840390855afa1580156110a5573d6000803e3d6000fd5b5050506020604051035190506110b9611141565b73ffffffffffffffffffffffffffffffffffffffff168173ffffffffffffffffffffffffffffffffffffffff161492505050949350505050565b80600460006101000a81548173ffffffffffffffffffffffffffffffffffffffff021916908373ffffffffffffffffffffffffffffffffffffffff16021790555050565b8060038190555050565b6000600460009054906101000a900473ffffffffffffffffffffffffffffffffffffffff16905090565b600061117e61117984611a2b565b6119fa565b9050808382526020820190508260005b858110156111be57813585016111a4888261126f565b84526020840193506020830192505060018101905061118e565b5050509392505050565b60006111db6111d684611a57565b6119fa565b9050828152602081018484840111156111f357600080fd5b6111fe848285611b57565b509392505050565b60008135905061121581611c1e565b92915050565b600082601f83011261122c57600080fd5b813561123c84826020860161116b565b91505092915050565b60008135905061125481611c35565b92915050565b60008135905061126981611c4c565b92915050565b600082601f83011261128057600080fd5b81356112908482602086016111c8565b91505092915050565b6000813590506112a881611c63565b92915050565b6000813590506112bd81611c7a565b92915050565b6000602082840312156112d557600080fd5b60006112e384828501611206565b91505092915050565b60008060008060008060c0878903121561130557600080fd5b600061131389828a0161125a565b965050602061132489828a016112ae565b955050604061133589828a0161125a565b945050606061134689828a0161125a565b935050608061135789828a01611206565b92505060a061136889828a01611245565b9150509295509295509295565b60008060008060008060c0878903121561138e57600080fd5b600061139c89828a0161125a565b96505060206113ad89828a016112ae565b95505060406113be89828a0161125a565b94505060606113cf89828a0161125a565b93505060806113e089828a01611206565b92505060a06113f189828a01611299565b9150509295509295509295565b60008060006060848603121561141357600080fd5b600084013567ffffffffffffffff81111561142d57600080fd5b6114398682870161126f565b935050602084013567ffffffffffffffff81111561145657600080fd5b6114628682870161126f565b925050604084013567ffffffffffffffff81111561147f57600080fd5b61148b8682870161121b565b9150509250925092565b6000602082840312156114a757600080fd5b60006114b584828501611299565b91505092915050565b60006114ca83836115a2565b905092915050565b6114db81611af8565b82525050565b6114f26114ed82611af8565b611b99565b82525050565b600061150382611a97565b61150d8185611aba565b93508360208202850161151f85611a87565b8060005b8581101561155b578484038952815161153c85826114be565b945061154783611aad565b925060208a01995050600181019050611523565b50829750879550505050505092915050565b61157681611b0a565b82525050565b61158581611b16565b82525050565b61159c61159782611b16565b611bab565b82525050565b60006115ad82611aa2565b6115b78185611acb565b93506115c7818560208601611b66565b6115d081611c00565b840191505092915050565b60006115e682611aa2565b6115f08185611adc565b9350611600818560208601611b66565b61160981611c00565b840191505092915050565b6000611621601483611adc565b91507f4d65737361676520616c726561647920757365640000000000000000000000006000830152602082019050919050565b6000611661601c83611aed565b91507f19457468657265756d205369676e6564204d6573736167653a0a3332000000006000830152601c82019050919050565b60006116a1602683611adc565b91507f4f776e61626c653a206e6577206f776e657220697320746865207a65726f206160008301527f64647265737300000000000000000000000000000000000000000000000000006020830152604082019050919050565b6000611707601283611adc565b91507f53656e64657220626c61636b6c697374656400000000000000000000000000006000830152602082019050919050565b6000611747602083611adc565b91507f4f776e61626c653a2063616c6c6572206973206e6f7420746865206f776e65726000830152602082019050919050565b61178381611b40565b82525050565b61179a61179582611b40565b611bc7565b82525050565b6117a981611b4a565b82525050565b60006117bb82856114e1565b6014820191506117cb8284611789565b6020820191508190509392505050565b60006117e682611654565b91506117f2828461158b565b60208201915081905092915050565b600060208201905061181660008301846114d2565b92915050565b600060408201905061183160008301856114d2565b61183e602083018461157c565b9392505050565b600060a08201905061185a60008301886114d2565b611867602083018761157c565b818103604083015261187981866115db565b9050818103606083015261188d81856115db565b905081810360808301526118a181846114f8565b90509695505050505050565b60006020820190506118c2600083018461157c565b92915050565b60006040820190506118dd600083018561157c565b6118ea602083018461156d565b9392505050565b6000604082019050611906600083018561157c565b611913602083018461177a565b9392505050565b600060808201905061192f600083018761157c565b61193c60208301866117a0565b611949604083018561157c565b611956606083018461157c565b95945050505050565b6000602082019050818103600083015261197881611614565b9050919050565b6000602082019050818103600083015261199881611694565b9050919050565b600060208201905081810360008301526119b8816116fa565b9050919050565b600060208201905081810360008301526119d88161173a565b9050919050565b60006020820190506119f4600083018461177a565b92915050565b6000604051905081810181811067ffffffffffffffff82111715611a2157611a20611bd1565b5b8060405250919050565b600067ffffffffffffffff821115611a4657611a45611bd1565b5b602082029050602081019050919050565b600067ffffffffffffffff821115611a7257611a71611bd1565b5b601f19601f8301169050602081019050919050565b6000819050602082019050919050565b600081519050919050565b600081519050919050565b6000602082019050919050565b600082825260208201905092915050565b600082825260208201905092915050565b600082825260208201905092915050565b600081905092915050565b6000611b0382611b20565b9050919050565b60008115159050919050565b6000819050919050565b600073ffffffffffffffffffffffffffffffffffffffff82169050919050565b6000819050919050565b600060ff82169050919050565b82818337600083830152505050565b60005b83811015611b84578082015181840152602081019050611b69565b83811115611b93576000848401525b50505050565b6000611ba482611bb5565b9050919050565b6000819050919050565b6000611bc082611c11565b9050919050565b6000819050919050565b7f4e487b7100000000000000000000000000000000000000000000000000000000600052604160045260246000fd5b6000601f19601f8301169050919050565b60008160601b9050919050565b611c2781611af8565b8114611c3257600080fd5b50565b611c3e81611b0a565b8114611c4957600080fd5b50565b611c5581611b16565b8114611c6057600080fd5b50565b611c6c81611b40565b8114611c7757600080fd5b50565b611c8381611b4a565b8114611c8e57600080fd5b5056fea26469706673582212208bbb204aff8d0a53d3d9a77a1650f0adcd28c8c4c653d19e47b99607e95bc61964736f6c63430008000033",
  "immutableReferences": {},
  "source": "//SPDX-License-Identifier: <SPDX-License>\n\npragma solidity 0.8.0;\n\nimport \"../node_modules/@openzeppelin/contracts/access/Ownable.sol\";\nimport \"../node_modules/@openzeppelin/contracts/utils/Context.sol\";\nimport \"./system/OracleAuthority.sol\";\nimport \"./system/ECDSAVerification.sol\";\nimport \"./interfaces/IRequesterContract.sol\";\n\ncontract Oracle is Ownable, OracleAuthority, ECDSAVerification {\n\n  mapping(address => bytes32) public requestIdList;\n\n  // Random number\n  event randomNumberRequested(address _requester, bytes32 _requestId);\n  event randomNumberRequestFulFilled(bytes32 _requestId, uint _result);\n\n  // Http get number\n  event httpGetNumberRequested(address _requester, bytes32 _requestId, string _baseUrl, string _path, string [] _jsonData);\n  event httpGetNumberFulFilled(bytes32 _requestId, uint _result);\n\n  // Http get boolean\n  event httpGetBooleanRequested(address _requester, bytes32 _requestId, string _baseUrl, string _path, string [] _jsonData);\n  event httpGetBooleanFulFilled(bytes32 _requestId, bool _result);\n\n  /**\n    * Request fee verification. \n    */\n  modifier costs() {\n    require(msg.value >= getFeePrice(), \"Missing fee\");\n    _;\n  }\n\n  // == RANDOM NUMBER == //\n\n/**\n  * @notice Request a random number.\n  *\n  * @dev    Emit `randomNumberRequested` event.\n  * \n  * @return A request id as bytes32.\n  */\n  function requestRandomNumber() \n    external \n    returns (bytes32) {\n      bytes32 requestId = keccak256(abi.encodePacked(_msgSender(), block.timestamp));\n      requestIdList[_msgSender()] = requestId;\n      emit randomNumberRequested(_msgSender(), requestId);\n      return requestId;\n  }\n\n/**\n  * @notice Fulfil a random number request.\n  * \n  * @dev Verify that the message is coming from the oracle and was not tampered\n  *      by matching the signature with the address `ORACLE`.\n  *      Verify that the message was not previously used and verify that the sender address \n  *      is not blacklisted.\n  *      Emit `randomNumberRequestFulFilled` event.\n  *\n  * @param _h The hashed message.\n  * @param _v Signature V value.\n  * @param _r Signature R value.\n  * @param _s Signature S value.\n  * @param _requester The requester address.\n  * @param _result The random number.\n  */\n  function fulfilRandomNumberRequest(\n    bytes32 _h, \n    uint8 _v, \n    bytes32 _r, \n    bytes32 _s, \n    address _requester, \n    uint _result) \n    external \n    isPreviousMessage(_h)\n    isBlacklisted(_msgSender()) {\n\n    require(_verify(_h,_v,_r,_s));\n    RequesterContract(_requester)._callback(requestIdList[_requester], _result);\n    emit randomNumberRequestFulFilled(requestIdList[_requester], _result);\n    \n  }\n\n\n  // == HTTP GET NUMBER == //\n\n/**\n  * @notice Request HTTP GET request.\n  *         Works with HTTP-2 as well.\n  *\n  * @dev    Emit `httpGetRequestRequested` event.\n  * \n  * @return A request id as bytes32.\n  */\n  function requestHttpGetNumber(\n    string memory _baseUrl,\n    string memory _path,\n    string [] memory _jsonData) \n    external \n    returns (bytes32) {\n      bytes32 requestId = keccak256(abi.encodePacked(_msgSender(), block.timestamp));\n      requestIdList[_msgSender()] = requestId;\n      emit httpGetNumberRequested(_msgSender(), requestId, _baseUrl, _path, _jsonData);\n      return requestId;\n  }\n\n/**\n  * @notice Fulfil an http get request.\n  * \n  * @dev Verify that the message is coming from the oracle and was not tampered\n  *      by matching the signature with the address `ORACLE`.\n  *      Verify that the message was not previously used and verify that the sender address \n  *      is not blacklisted.\n  *      Emit `httpGetRequestRequestedFulFilled` event.\n  *\n  * @param _h The hashed message.\n  * @param _v Signature V value.\n  * @param _r Signature R value.\n  * @param _s Signature S value.\n  * @param _requester The requester address.\n  * @param _result The result number.\n  */\n  function fulfilHttpGetNumber(\n    bytes32 _h, \n    uint8 _v, \n    bytes32 _r, \n    bytes32 _s, \n    address _requester, \n    uint _result) \n    external \n    isPreviousMessage(_h)\n    isBlacklisted(_msgSender()) {\n\n      require(_verify(_h,_v,_r,_s));\n      RequesterContract(_requester)._callback(requestIdList[_requester], _result);\n      emit httpGetNumberFulFilled(requestIdList[_requester], _result);\n    \n  }\n\n  // == HTTP GET BOOLEAN == //\n  \n/**\n  * @notice Request HTTP GET request.\n  *         Works with HTTP-2 as well.\n  *\n  * @dev    Emit `httpGetBooleanRequestRequested` event.\n  * \n  * @return A request id as bytes32.\n  */\n  function requestHttpGetBoolean(\n    string memory _baseUrl,\n    string memory _path,\n    string [] memory _jsonData) \n    external \n    returns (bytes32) {\n      bytes32 requestId = keccak256(abi.encodePacked(_msgSender(), block.timestamp));\n      requestIdList[_msgSender()] = requestId;\n      emit httpGetBooleanRequested(_msgSender(), requestId, _baseUrl, _path, _jsonData);\n      return requestId;\n  }\n\n/**\n  * @notice Fulfil an http get request.\n  * \n  * @dev Verify that the message is coming from the oracle and was not tampered\n  *      by matching the signature with the address `ORACLE`.\n  *      Verify that the message was not previously used and verify that the sender address \n  *      is not blacklisted.\n  *      Emit `httpGetBooleanRequestFulFilled` event.\n  *\n  * @param _h The hashed message.\n  * @param _v Signature V value.\n  * @param _r Signature R value.\n  * @param _s Signature S value.\n  * @param _requester The requester address.\n  * @param _result The result boolean.\n  */\n  function fulfilHttpGetBoolean(\n    bytes32 _h, \n    uint8 _v, \n    bytes32 _r, \n    bytes32 _s, \n    address _requester, \n    bool _result) \n    isPreviousMessage(_h)\n    isBlacklisted(_msgSender())\n    external {\n\n      require(_verify(_h,_v,_r,_s));\n      RequesterContract(_requester)._callback(requestIdList[_requester], _result);\n      emit httpGetBooleanFulFilled(requestIdList[_requester], _result);\n      \n    }\n\n\n\n\n\n\n\n\n\n\n\n\n\n\n\n\n\n  /**\n    * @notice Get request id for a given requester address.\n    */\n  function getRequestId(address _requester) public view returns (bytes32){\n    return requestIdList[_requester];\n  }\n\n  /**\n    * @notice Set the oracle fee.\n    */\n  function setOracleFee(uint _fee) external onlyOwner {\n    require(_fee > 0);\n    _setOracleFee(_fee);\n  }\n\n  /**\n    * @notice Set the oracle address.\n    */\n  function setOracleAddress(address _oracle) external onlyOwner {\n    require(_oracle != address(0));\n    _setOracleAddress(_oracle);\n  }\n\n}",
  "sourcePath": "/Users/dani/Documents/Coding/Solidity/BSC/Oracle/contracts/Oracle.sol",
  "compiler": {
    "name": "solc",
    "version": "0.8.0+commit.c7dfd78e.Emscripten.clang"
  },
  "schemaVersion": "3.3.4",
  "updatedAt": "2021-04-22T09:42:23.859Z",
  "networkType": "ethereum",
  "devdoc": {
    "kind": "dev",
    "methods": {
      "fulfilHttpGetBoolean(bytes32,uint8,bytes32,bytes32,address,bool)": {
        "details": "Verify that the message is coming from the oracle and was not tampered      by matching the signature with the address `ORACLE`.      Verify that the message was not previously used and verify that the sender address       is not blacklisted.      Emit `httpGetBooleanRequestFulFilled` event.",
        "params": {
          "_h": "The hashed message.",
          "_r": "Signature R value.",
          "_requester": "The requester address.",
          "_result": "The result boolean.",
          "_s": "Signature S value.",
          "_v": "Signature V value."
        }
      },
      "fulfilHttpGetNumber(bytes32,uint8,bytes32,bytes32,address,uint256)": {
        "details": "Verify that the message is coming from the oracle and was not tampered      by matching the signature with the address `ORACLE`.      Verify that the message was not previously used and verify that the sender address       is not blacklisted.      Emit `httpGetRequestRequestedFulFilled` event.",
        "params": {
          "_h": "The hashed message.",
          "_r": "Signature R value.",
          "_requester": "The requester address.",
          "_result": "The result number.",
          "_s": "Signature S value.",
          "_v": "Signature V value."
        }
      },
      "fulfilRandomNumberRequest(bytes32,uint8,bytes32,bytes32,address,uint256)": {
        "details": "Verify that the message is coming from the oracle and was not tampered      by matching the signature with the address `ORACLE`.      Verify that the message was not previously used and verify that the sender address       is not blacklisted.      Emit `randomNumberRequestFulFilled` event.",
        "params": {
          "_h": "The hashed message.",
          "_r": "Signature R value.",
          "_requester": "The requester address.",
          "_result": "The random number.",
          "_s": "Signature S value.",
          "_v": "Signature V value."
        }
      },
      "owner()": {
        "details": "Returns the address of the current owner."
      },
      "renounceOwnership()": {
        "details": "Leaves the contract without owner. It will not be possible to call `onlyOwner` functions anymore. Can only be called by the current owner. NOTE: Renouncing ownership will leave the contract without an owner, thereby removing any functionality that is only available to the owner."
      },
      "requestHttpGetBoolean(string,string,string[])": {
        "details": "Emit `httpGetBooleanRequestRequested` event. ",
        "returns": {
          "_0": "A request id as bytes32."
        }
      },
      "requestHttpGetNumber(string,string,string[])": {
        "details": "Emit `httpGetRequestRequested` event. ",
        "returns": {
          "_0": "A request id as bytes32."
        }
      },
      "requestRandomNumber()": {
        "details": "Emit `randomNumberRequested` event. ",
        "returns": {
          "_0": "A request id as bytes32."
        }
      },
      "transferOwnership(address)": {
        "details": "Transfers ownership of the contract to a new account (`newOwner`). Can only be called by the current owner."
      }
    },
    "version": 1
  },
  "userdoc": {
    "kind": "user",
    "methods": {
      "fulfilHttpGetBoolean(bytes32,uint8,bytes32,bytes32,address,bool)": {
        "notice": "Fulfil an http get request. "
      },
      "fulfilHttpGetNumber(bytes32,uint8,bytes32,bytes32,address,uint256)": {
        "notice": "Fulfil an http get request. "
      },
      "fulfilRandomNumberRequest(bytes32,uint8,bytes32,bytes32,address,uint256)": {
        "notice": "Fulfil a random number request. "
      },
      "getRequestId(address)": {
        "notice": "Get request id for a given requester address."
      },
      "requestHttpGetBoolean(string,string,string[])": {
        "notice": "Request HTTP GET request.         Works with HTTP-2 as well."
      },
      "requestHttpGetNumber(string,string,string[])": {
        "notice": "Request HTTP GET request.         Works with HTTP-2 as well."
      },
      "requestRandomNumber()": {
        "notice": "Request a random number."
      },
      "setOracleAddress(address)": {
        "notice": "Set the oracle address."
      },
      "setOracleFee(uint256)": {
        "notice": "Set the oracle fee."
      }
    },
    "version": 1
  }
}