{
  "contractName": "TestContract",
  "abi": [
    {
      "inputs": [],
      "name": "number",
      "outputs": [
        {
          "internalType": "uint256",
          "name": "",
          "type": "uint256"
        }
      ],
      "stateMutability": "view",
      "type": "function",
      "constant": true
    },
    {
      "inputs": [],
      "name": "result",
      "outputs": [
        {
          "internalType": "bytes32",
          "name": "",
          "type": "bytes32"
        }
      ],
      "stateMutability": "view",
      "type": "function",
      "constant": true
    },
    {
      "inputs": [
        {
          "internalType": "address",
          "name": "_oracleAddress",
          "type": "address"
        }
      ],
      "name": "callOracle",
      "outputs": [],
      "stateMutability": "nonpayable",
      "type": "function"
    },
    {
      "inputs": [
        {
          "internalType": "bytes32",
          "name": "_requestId",
          "type": "bytes32"
        },
        {
          "internalType": "uint256",
          "name": "_result",
          "type": "uint256"
        }
      ],
      "name": "_callback",
      "outputs": [],
      "stateMutability": "nonpayable",
      "type": "function"
    },
    {
      "inputs": [
        {
          "internalType": "address",
          "name": "_oracleAddress",
          "type": "address"
        },
        {
          "internalType": "string[]",
          "name": "_data",
          "type": "string[]"
        }
      ],
      "name": "newHttpGet",
      "outputs": [],
      "stateMutability": "nonpayable",
      "type": "function"
    }
  ],
  "bytecode": "0x6080604052600060015534801561001557600080fd5b50610882806100256000396000f3fe608060405234801561001057600080fd5b50600436106100575760003560e01c80630d7efd531461005c578063619488231461007857806365372147146100945780637b3af396146100b25780638381f58a146100ce575b600080fd5b61007660048036038101906100719190610366565b6100ec565b005b610092600480360381019061008d919061038f565b610170565b005b61009c610205565b6040516100a991906105ce565b60405180910390f35b6100cc60048036038101906100c7919061040c565b61020b565b005b6100d661021d565b6040516100e39190610631565b60405180910390f35b8073ffffffffffffffffffffffffffffffffffffffff16638678a7b26040518163ffffffff1660e01b8152600401602060405180830381600087803b15801561013457600080fd5b505af1158015610148573d6000803e3d6000fd5b505050506040513d601f19601f8201168201806040525081019061016c91906103e3565b5050565b8173ffffffffffffffffffffffffffffffffffffffff16630b0ee491826040518263ffffffff1660e01b81526004016101a991906105e9565b602060405180830381600087803b1580156101c357600080fd5b505af11580156101d7573d6000803e3d6000fd5b505050506040513d601f19601f820116820180604052508101906101fb91906103e3565b6000819055505050565b60005481565b81600081905550806001819055505050565b60015481565b60006102366102318461067d565b61064c565b9050808382526020820190508260005b85811015610276578135850161025c8882610327565b845260208401935060208301925050600181019050610246565b5050509392505050565b600061029361028e846106a9565b61064c565b9050828152602081018484840111156102ab57600080fd5b6102b6848285610785565b509392505050565b6000813590506102cd81610807565b92915050565b600082601f8301126102e457600080fd5b81356102f4848260208601610223565b91505092915050565b60008135905061030c8161081e565b92915050565b6000815190506103218161081e565b92915050565b600082601f83011261033857600080fd5b8135610348848260208601610280565b91505092915050565b60008135905061036081610835565b92915050565b60006020828403121561037857600080fd5b6000610386848285016102be565b91505092915050565b600080604083850312156103a257600080fd5b60006103b0858286016102be565b925050602083013567ffffffffffffffff8111156103cd57600080fd5b6103d9858286016102d3565b9150509250929050565b6000602082840312156103f557600080fd5b600061040384828501610312565b91505092915050565b6000806040838503121561041f57600080fd5b600061042d858286016102fd565b925050602061043e85828601610351565b9150509250929050565b600061045483836104e0565b905092915050565b6000610467826106e9565b610471818561070c565b935083602082028501610483856106d9565b8060005b858110156104bf57848403895281516104a08582610448565b94506104ab836106ff565b925060208a01995050600181019050610487565b50829750879550505050505092915050565b6104da81610751565b82525050565b60006104eb826106f4565b6104f5818561071d565b9350610505818560208601610794565b61050e816107f6565b840191505092915050565b6000610526602b8361072e565b91507f2f73696d706c652f70726963653f6964733d626974636f696e2676735f63757260008301527f72656e636965733d7573640000000000000000000000000000000000000000006020830152604082019050919050565b600061058c60208361072e565b91507f68747470733a2f2f6170692e636f696e6765636b6f2e636f6d2f6170692f76336000830152602082019050919050565b6105c88161077b565b82525050565b60006020820190506105e360008301846104d1565b92915050565b600060608201905081810360008301526106028161057f565b9050818103602083015261061581610519565b90508181036040830152610629818461045c565b905092915050565b600060208201905061064660008301846105bf565b92915050565b6000604051905081810181811067ffffffffffffffff82111715610673576106726107c7565b5b8060405250919050565b600067ffffffffffffffff821115610698576106976107c7565b5b602082029050602081019050919050565b600067ffffffffffffffff8211156106c4576106c36107c7565b5b601f19601f8301169050602081019050919050565b6000819050602082019050919050565b600081519050919050565b600081519050919050565b6000602082019050919050565b600082825260208201905092915050565b600082825260208201905092915050565b600082825260208201905092915050565b600061074a8261075b565b9050919050565b6000819050919050565b600073ffffffffffffffffffffffffffffffffffffffff82169050919050565b6000819050919050565b82818337600083830152505050565b60005b838110156107b2578082015181840152602081019050610797565b838111156107c1576000848401525b50505050565b7f4e487b7100000000000000000000000000000000000000000000000000000000600052604160045260246000fd5b6000601f19601f8301169050919050565b6108108161073f565b811461081b57600080fd5b50565b61082781610751565b811461083257600080fd5b50565b61083e8161077b565b811461084957600080fd5b5056fea26469706673582212200746056628df9439a3de9beb2df7885ef9f24799e0bed4287a1118efd8e7301464736f6c63430008000033",
  "immutableReferences": {},
  "source": "pragma solidity 0.8.0;\n\ninterface OracleInteface {\n  function requestRandomNumber() external payable returns(bytes32);\n  function requestHttpGet(\n    string memory _baseUrl,\n    string memory _path,\n    string [] memory _jsonData\n  ) external payable returns(bytes32);\n}\n\n\ncontract TestContract {\n  \n  bytes32 public result;\n  uint public number = 0;\n\n  function callOracle(address _oracleAddress) public {\n    OracleInteface(_oracleAddress).requestRandomNumber();\n  }\n\n  function _callback (bytes32 _requestId, uint _result) external {\n    result  = _requestId;\n    number = _result;\n  }\n\n  function newHttpGet(address _oracleAddress, string [] memory _data) public {\n    result = OracleInteface(_oracleAddress).requestHttpGet('https://api.coingecko.com/api/v3','/simple/price?ids=bitcoin&vs_currencies=usd',_data);\n  }\n}",
  "sourcePath": "/Users/dani/Documents/Coding/Solidity/BSC/oracle/contracts/tests/TestContract.sol",
  "compiler": {
    "name": "solc",
    "version": "0.8.0+commit.c7dfd78e.Emscripten.clang"
  },
  "schemaVersion": "3.3.4",
  "updatedAt": "2021-04-19T20:22:51.752Z",
  "networkType": "ethereum",
  "devdoc": {
    "kind": "dev",
    "methods": {},
    "version": 1
  },
  "userdoc": {
    "kind": "user",
    "methods": {},
    "version": 1
  }
}