{
  "contractName": "TestContract",
  "abi": [
    {
      "inputs": [],
      "name": "number",
      "outputs": [
        {
          "internalType": "uint256",
          "name": "",
          "type": "uint256"
        }
      ],
      "stateMutability": "view",
      "type": "function",
      "constant": true
    },
    {
      "inputs": [],
      "name": "result",
      "outputs": [
        {
          "internalType": "bytes32",
          "name": "",
          "type": "bytes32"
        }
      ],
      "stateMutability": "view",
      "type": "function",
      "constant": true
    },
    {
      "inputs": [],
      "name": "resultBool",
      "outputs": [
        {
          "internalType": "bool",
          "name": "",
          "type": "bool"
        }
      ],
      "stateMutability": "view",
      "type": "function",
      "constant": true
    },
    {
      "inputs": [
        {
          "internalType": "address",
          "name": "_oracleAddress",
          "type": "address"
        }
      ],
      "name": "callOracle",
      "outputs": [],
      "stateMutability": "nonpayable",
      "type": "function"
    },
    {
      "inputs": [
        {
          "internalType": "bytes32",
          "name": "_requestId",
          "type": "bytes32"
        },
        {
          "internalType": "uint256",
          "name": "_result",
          "type": "uint256"
        }
      ],
      "name": "_callback",
      "outputs": [],
      "stateMutability": "nonpayable",
      "type": "function"
    },
    {
      "inputs": [
        {
          "internalType": "bytes32",
          "name": "_requestId",
          "type": "bytes32"
        },
        {
          "internalType": "bool",
          "name": "_result",
          "type": "bool"
        }
      ],
      "name": "_callback",
      "outputs": [],
      "stateMutability": "nonpayable",
      "type": "function"
    },
    {
      "inputs": [
        {
          "internalType": "address",
          "name": "_oracleAddress",
          "type": "address"
        },
        {
          "internalType": "string[]",
          "name": "_data",
          "type": "string[]"
        }
      ],
      "name": "newHttpGet",
      "outputs": [],
      "stateMutability": "nonpayable",
      "type": "function"
    },
    {
      "inputs": [
        {
          "internalType": "address",
          "name": "_oracleAddress",
          "type": "address"
        },
        {
          "internalType": "string[]",
          "name": "_data",
          "type": "string[]"
        }
      ],
      "name": "httpBoolean",
      "outputs": [],
      "stateMutability": "nonpayable",
      "type": "function"
    }
  ],
  "bytecode": "0x608060405260006001556001600260006101000a81548160ff02191690831515021790555034801561003057600080fd5b50610ba7806100406000396000f3fe608060405234801561001057600080fd5b50600436106100885760003560e01c80637b3af3961161005b5780637b3af396146100ff5780638381f58a1461011b578063a711f98514610139578063fb3e1b8a1461015757610088565b80630d7efd531461008d57806361948823146100a957806365372147146100c5578063790e155a146100e3575b600080fd5b6100a760048036038101906100a291906104c8565b610173565b005b6100c360048036038101906100be91906104f1565b6101f7565b005b6100cd61028c565b6040516100da9190610888565b60405180910390f35b6100fd60048036038101906100f891906104f1565b610292565b005b610119600480360381019061011491906105aa565b610327565b005b610123610339565b6040516101309190610933565b60405180910390f35b61014161033f565b60405161014e919061086d565b60405180910390f35b610171600480360381019061016c919061056e565b610352565b005b8073ffffffffffffffffffffffffffffffffffffffff16638678a7b26040518163ffffffff1660e01b8152600401602060405180830381600087803b1580156101bb57600080fd5b505af11580156101cf573d6000803e3d6000fd5b505050506040513d601f19601f820116820180604052508101906101f39190610545565b5050565b8173ffffffffffffffffffffffffffffffffffffffff16630b0ee491826040518263ffffffff1660e01b815260040161023091906108eb565b602060405180830381600087803b15801561024a57600080fd5b505af115801561025e573d6000803e3d6000fd5b505050506040513d601f19601f820116820180604052508101906102829190610545565b6000819055505050565b60005481565b8173ffffffffffffffffffffffffffffffffffffffff1663a2283ad9826040518263ffffffff1660e01b81526004016102cb91906108a3565b602060405180830381600087803b1580156102e557600080fd5b505af11580156102f9573d6000803e3d6000fd5b505050506040513d601f19601f8201168201806040525081019061031d9190610545565b6000819055505050565b81600081905550806001819055505050565b60015481565b600260009054906101000a900460ff1681565b80600260006101000a81548160ff0219169083151502179055505050565b600061038361037e8461097f565b61094e565b9050808382526020820190508260005b858110156103c357813585016103a98882610489565b845260208401935060208301925050600181019050610393565b5050509392505050565b60006103e06103db846109ab565b61094e565b9050828152602081018484840111156103f857600080fd5b610403848285610a93565b509392505050565b60008135905061041a81610b15565b92915050565b600082601f83011261043157600080fd5b8135610441848260208601610370565b91505092915050565b60008135905061045981610b2c565b92915050565b60008135905061046e81610b43565b92915050565b60008151905061048381610b43565b92915050565b600082601f83011261049a57600080fd5b81356104aa8482602086016103cd565b91505092915050565b6000813590506104c281610b5a565b92915050565b6000602082840312156104da57600080fd5b60006104e88482850161040b565b91505092915050565b6000806040838503121561050457600080fd5b60006105128582860161040b565b925050602083013567ffffffffffffffff81111561052f57600080fd5b61053b85828601610420565b9150509250929050565b60006020828403121561055757600080fd5b600061056584828501610474565b91505092915050565b6000806040838503121561058157600080fd5b600061058f8582860161045f565b92505060206105a08582860161044a565b9150509250929050565b600080604083850312156105bd57600080fd5b60006105cb8582860161045f565b92505060206105dc858286016104b3565b9150509250929050565b60006105f2838361068d565b905092915050565b6000610605826109eb565b61060f8185610a0e565b935083602082028501610621856109db565b8060005b8581101561065d578484038952815161063e85826105e6565b945061064983610a01565b925060208a01995050600181019050610625565b50829750879550505050505092915050565b61067881610a53565b82525050565b61068781610a5f565b82525050565b6000610698826109f6565b6106a28185610a1f565b93506106b2818560208601610aa2565b6106bb81610b04565b840191505092915050565b60006106d3602b83610a30565b91507f68747470733a2f2f61636164656d792d6365727469666963617465732e68657260008301527f6f6b756170702e636f6d2f0000000000000000000000000000000000000000006020830152604082019050919050565b6000610739602b83610a30565b91507f2f73696d706c652f70726963653f6964733d626974636f696e2676735f63757260008301527f72656e636965733d7573640000000000000000000000000000000000000000006020830152604082019050919050565b600061079f602083610a30565b91507f68747470733a2f2f6170692e636f696e6765636b6f2e636f6d2f6170692f76336000830152602082019050919050565b60006107df604383610a30565b91507f6170692f76312f6365727469666963617465732f516d5a796d6150505147797460008301527f776d4247686a6259434b5455397a5a4a325574673736426a396e68346261786b60208301527f65436400000000000000000000000000000000000000000000000000000000006040830152606082019050919050565b61086781610a89565b82525050565b6000602082019050610882600083018461066f565b92915050565b600060208201905061089d600083018461067e565b92915050565b600060608201905081810360008301526108bc816106c6565b905081810360208301526108cf816107d2565b905081810360408301526108e381846105fa565b905092915050565b6000606082019050818103600083015261090481610792565b905081810360208301526109178161072c565b9050818103604083015261092b81846105fa565b905092915050565b6000602082019050610948600083018461085e565b92915050565b6000604051905081810181811067ffffffffffffffff8211171561097557610974610ad5565b5b8060405250919050565b600067ffffffffffffffff82111561099a57610999610ad5565b5b602082029050602081019050919050565b600067ffffffffffffffff8211156109c6576109c5610ad5565b5b601f19601f8301169050602081019050919050565b6000819050602082019050919050565b600081519050919050565b600081519050919050565b6000602082019050919050565b600082825260208201905092915050565b600082825260208201905092915050565b600082825260208201905092915050565b6000610a4c82610a69565b9050919050565b60008115159050919050565b6000819050919050565b600073ffffffffffffffffffffffffffffffffffffffff82169050919050565b6000819050919050565b82818337600083830152505050565b60005b83811015610ac0578082015181840152602081019050610aa5565b83811115610acf576000848401525b50505050565b7f4e487b7100000000000000000000000000000000000000000000000000000000600052604160045260246000fd5b6000601f19601f8301169050919050565b610b1e81610a41565b8114610b2957600080fd5b50565b610b3581610a53565b8114610b4057600080fd5b50565b610b4c81610a5f565b8114610b5757600080fd5b50565b610b6381610a89565b8114610b6e57600080fd5b5056fea2646970667358221220f043069997ebdeb0953e95bc02f8a9b21fdbf58719656678a1238dad04023ab264736f6c63430008000033",
  "immutableReferences": {},
  "source": "pragma solidity 0.8.0;\n\ninterface OracleInteface {\n  function requestRandomNumber() external payable returns(bytes32);\n  function requestHttpGet(\n    string memory _baseUrl,\n    string memory _path,\n    string [] memory _jsonData\n  ) external payable returns(bytes32);\n\n  function requestHttpGetBoolean(\n    string memory _baseUrl,\n    string memory _path,\n    string [] memory _jsonData\n  ) external returns(bytes32);\n\n}\n\n\ncontract TestContract {\n  \n  bytes32 public result;\n  uint public number = 0;\n\n  bool public resultBool = true;\n\n\n  function callOracle(address _oracleAddress) public {\n    OracleInteface(_oracleAddress).requestRandomNumber();\n  }\n\n  function _callback (bytes32 _requestId, uint _result) external {\n    result  = _requestId;\n    number = _result;\n  }\n\n  function _callback (bytes32 _requestId, bool _result) external {\n    resultBool = _result;\n  }\n\n  function newHttpGet(address _oracleAddress, string [] memory _data) public {\n    result = OracleInteface(_oracleAddress).requestHttpGet('https://api.coingecko.com/api/v3','/simple/price?ids=bitcoin&vs_currencies=usd',_data);\n  }\n\n\n  function httpBoolean(address _oracleAddress, string [] memory _data) public {\n    result = OracleInteface(_oracleAddress).requestHttpGetBoolean('https://academy-certificates.herokuapp.com/','api/v1/certificates/QmZymaPPQGytwmBGhjbYCKTU9zZJ2Utg76Bj9nh4baxkeCd',_data);\n  }\n}",
  "sourcePath": "/Users/dani/Documents/Coding/Solidity/BSC/Oracle/contracts/tests/TestContract.sol",
  "compiler": {
    "name": "solc",
    "version": "0.8.0+commit.c7dfd78e.Emscripten.clang"
  },
  "schemaVersion": "3.3.4",
  "updatedAt": "2021-04-20T08:48:51.433Z",
  "networkType": "ethereum",
  "devdoc": {
    "kind": "dev",
    "methods": {},
    "version": 1
  },
  "userdoc": {
    "kind": "user",
    "methods": {},
    "version": 1
  }
}